:1000000012C01FC01EC01DC01CC01BC01FC219C013
:1000100018C017C016C015C014C013C012C034C118
:100020004EC10FC00EC011241FBECFEDCDBF10E0DA
:10003000A0E6B0E001C01D92A63BB107E1F7D2D027
:10004000D7C3DECF40E015C0E199FECFC901805093
:1000500090408EBBE09A8DB3E199FECF1CBA2E5D25
:100060003F4F2EBB8DBB0FB6F894E29AE19A0FBEBC
:100070004F5F242F30E080E02232380728F30895C4
:1000800080E782BBF894D2D1849BDCDFBC9AE199F3
:10009000FECF82E290E08EBBE09A8DB3B3D0EFD278
:1000A00078949FD287E390E072D2C49A08951F9308
:1000B000CFD08E3F21F08F3F09F091C00CC0C8D047
:1000C0008E3F19F08F3F29F402C08EEF88C08FEF6A
:1000D00086C073D285C0BCD0823109F461C083313F
:1000E000A8F4833009F439C0843030F4813021F130
:1000F000823009F075C027C0803109F447C08131D2
:1001000008F04CC0843009F06BC03AC0853109F466
:100110005FC0863138F4833109F44BC0843109F073
:100120005FC04DC0803F09F457C0813F09F455C0FE
:10013000863109F055C04EC08BD0882311F0C49A87
:100140004FC0C4984DC084D0E199FECF90E08E5D41
:100150009F4F8EBBE09A8DB31FC07AD0182F78D0F6
:10016000282FE199FECF1CBA812F90E08E5D9F4F22
:100170008EBB2DBB0FB6F894E29AE19A0FBE30C049
:1001800067D090E08E5D9F4F02D22AC08091A4007C
:100190009091A200891B8F704AD022C0A4D2FCCFBC
:1001A0008091A500882311F080E0F6CF8091A30014
:1001B000F3CF1092A2001092A400D99811C048D099
:1001C000182F03C090D233D011501123D9F708C093
:1001D000D89806C0D89A04C035DF52DF01C0D1D10B
:1001E0001F9108954DDF01C062DF45D08823E9F3F8
:1001F000FBCF109283001092820010929500109213
:10020000940008951092830010928200109295003D
:10021000109294008093600087B3806A87BBC79A6E
:10022000C59ABD9888EA8DB980EF8EB90895282FB8
:10023000909194009F5F9F70809195009817E1F3D3
:10024000E92FF0E0EC57FF4F20839093940008953E
:1002500090918200809183009817D1F38091830060
:100260008F5F8F7180938300E0918300F0E0EE59FF
:10027000FF4F80810895909182008091830020E05B
:10028000981321E0822F08951F920F920FB60F92BC
:1002900011248F9310926100BD98B79B02C0B59B4B
:1002A000FCCFB59902C088EF01C088EA8DB980EF14
:1002B0008EB98F910F900FBE0F901F9018951F92BF
:1002C0000F920FB60F9211248F939F93EF93FF938A
:1002D000809161008230D9F1833030F4882361F05D
:1002E000813009F054C018C08430B9F1843088F0EE
:1002F000853009F04CC037C08FB1882331F08FB101
:100300008695909160008917F9F4789B39C081E057
:1003100038C08FB18823C1F49091940080919500EA
:10032000981791F0809195008F5F8F708093950062
:10033000E0919500F0E0EC57FF4F80818FB982E0AB
:1003400080936100BD9A0DC088EA8DB90AC083E030
:1003500080936100BD981FB818C085E0809361004C
:10036000BD9880E713C0809182008F5F8F7180936A
:100370008200E09182008FB1F0E0EE59FF4F808360
:1003800084E0809361001FB8BD9A8EE78EB9FF911B
:10039000EF919F918F910F900FBE0F901F90189526
:1003A0008FB7F89420919E0030919F004091A0005B
:1003B0005091A1008FBFB901CA010895EF92FF9239
:1003C0000F931F937B018C018FB7F89440919E008F
:1003D00050919F006091A0007091A1008FBF2FB736
:1003E000F89480919E0090919F00A091A000B09100
:1003F000A1002FBF841B950BA60BB70BE816F906BF
:100400000A071B0760F71F910F91FF90EF90089567
:10041000019759F0019749F0FC01EE0FFF1F31974A
:100420008FB7F8943197F1F78FBF089580B7826046
:1004300080BF80B7816080BF83B7826083BF83B78E
:10044000816083BF89B7826089BF08951F920F9230
:100450000FB60F9211242F933F934F935F936F9397
:100460007F938F939F93AF93BF93EF93FF9380916D
:10047000960090919700A0919800B09199000196F4
:10048000A11DB11D8093960090939700A0939800B2
:10049000B093990080919A0090919B00A0919C004C
:1004A000B0919D008050904CAF4FBF4F80939A0009
:1004B00090939B00A0939C00B0939D0028C08091D6
:1004C0009A0090919B00A0919C00B0919D00805457
:1004D0009F41A040B04080939A0090939B00A093CE
:1004E0009C00B0939D0080919E0090919F00A091F0
:1004F000A000B091A1000196A11DB11D80939E00A6
:1005000090939F00A093A000B093A10021D180916F
:100510009A0090919B00A0919C00B0919D00815405
:100520009F41A040B04058F6FF91EF91BF91AF912D
:100530009F918F917F916F915F914F913F912F91FB
:100540000F900FBE0F901F901895C69A81E090E013
:100550005FDFC69881E090E05BDF089598B38F700D
:10056000907F892B88BBF1DF0895D998F7DF089534
:100570001F93182F82958F70F1DF812FEFDF1F916E
:100580000895D99AF5DF82E390E042DF0895CF9392
:10059000DF93EC0107C0E199FECF21969EBBE09A64
:1005A0008DB3EFDFE199FECF9C2FCEBBE09A8DB3E8
:1005B000882389F7DF91CF9108951F93182FD99839
:1005C000D7DF143030F462E070E080E090E0F6DED7
:1005D00003C082E390E01CDF1F91089581E0EDDF0E
:1005E00008951F93D19A87B38F6487BBC69862E33F
:1005F00070E080E090E0E2DE83E0B7DF65E070E08D
:1006000080E090E0DBDE83E0B0DF84E690E000DFB6
:1006100083E0ABDF65E070E080E090E0CFDE82E079
:10062000A4DFE199FECF84E290E0182F8EBBE09A20
:100630008DB382958F7099DFE199FECF1EBBE09A52
:100640008DB393DF8CE390E0E3DEE199FECF85E2AA
:1006500090E08EBBE09A8DB3B0DFE199FECF86E2E9
:1006600090E08EBBE09A8DB3A8DFE199FECF87E2E0
:1006700090E08EBBE09A8DB3A0DF1F91089511BA70
:10068000D09AD8981092A2001092A4001092A300C1
:100690001092A500089540E050E061E070E0E0E7CE
:1006A000342FCB01042E02C0880F991F0A94E2F761
:1006B00081BBE2BB20B322952F702095277011BA21
:1006C000243048F4222341F44F5F5F4F44305105FA
:1006D00039F780E0089523E0832F90E063E070E035
:1006E00075D0820F08959091A4008091A200981770
:1006F00041F4E199FECF8AE290E08EBBE09AEDB33F
:100700000CC0E82FF0E0EA55FF4FE0818F5F8F705B
:100710008093A200981709F4D8988E2F0895582F27
:100720004091A400E42FF0E09F012F5F3F4F2F7016
:1007300030708091A20090E02817390741F0EA5507
:10074000FF4F50834F5F4F704093A400D89A089595
:10075000A2DF282F8091A300281761F0E199FECF36
:1007600088E290E08EBBE09A8DB38093A500209341
:10077000A30008958091A500882339F181508093CA
:10078000A500882311F5222301F1E199FECF822FE4
:1007900090E0865D9F4F8EBBE09A5DB34091A400D0
:1007A000E42FF0E09F012F5F3F4F2F70307080915A
:1007B000A20090E02817390741F0EA55FF4F508317
:1007C0004F5F4F704093A400D89A08955527002496
:1007D00080FF02C0060E571F660F771F6115710557
:1007E00021F096958795009799F7952F802D08957C
:0407F000F894FFCFAB
:00000001FF
